S01100005457492D536C6176652E73726563F7
S11300000C942A000C943C000C943C000C943C008E
S11300100C943C000C943C000C943C000C943C006C
S11300200C943C000C943C000C943C000C943C005C
S11300300C943C000C943C000C943C000C943C004C
S11300400C943C000C943C000C943C000C943C003C
S11300500C943C0011241FBECFE5D8E0DEBFCDBF19
S113006020E0A0E6B0E001C01D92A036B207E1F79F
S11300700E9454000C9460000C94000094E096BF1D
S113008082B984EC86BF089506B607FEFDCF0895B5
S1130090811103C084EC86BF02C084E886BF06B623
S11300A007FEFDCF83B108958FEF8ABB80E40E94E1
S11300B03E000E94440081E00E9448008BBBF9CFBF
S10700C0F894FFCFDE
S9030000FC
