S01200005457492D4D61737465722E7372656385
S11300000C942A000C9434000C9434000C943400A6
S11300100C9434000C9434000C9434000C9434008C
S11300200C9434000C9434000C9434000C9434007C
S11300300C9434000C9434000C9434000C9434006C
S11300400C9434000C9434000C9434000C9434005C
S11300500C94340011241FBECFE5D8E0DEBFCDBF21
S11300600E944A000C946C000C94000083B986B77B
S1130070846886BF06B607FEFDCF089586B7846AF6
S113008086BF06B607FEFDCF089511B810B884E404
S113009086BF08958FEF8ABB0E9445000E943E00F0
S11300A080E40E94360085E50E9436002FE38DE04F
S11300B093E0215080409040E1F700C000008AEABC
S11300C00E9436002FE38DE093E021508040904061
S10F00D0E1F700C00000E7CFF894FFCF78
S9030000FC
